:10000000020003787FE4F6D8FD75811902004A02E8
:100010000156E493A3F8E493A34003F68001F208A9
:10002000DFF48029E493A3F85407240CC8C333C435
:10003000540F4420C8834004F456800146F6DFE4A0
:10004000800B0102040810204080900131E47E0101
:100050009360BCA3FF543F30E509541FFEE493A313
:1000600060010ECF54C025E060A840B8E493A3FA25
:10007000E493A3F8E493A3C8C582C8CAC583CAF0B1
:10008000A3C8C582C8CAC583CADFE9DEE780BE8EC1
:10009000088F09750E00750A00750B00C3E50B95F6
:1000A00009E50A95085027750C00750D00C3E50D8C
:1000B000943FE50C9402500C050E050DE50D700201
:1000C000050C80E9050BE50B7002050A80CE228E37
:1000D000158F168C178D18750F00751000C3E5105D
:1000E0009516E5156480F8E50F6480985013B28189
:1000F000AF18AE1712008F0510E5107002050F80C3
:10010000DC228F1975A0FF7580007590007D4B7CF7
:10011000007F147E001200CF12013E12014A7FF4CC
:100120007E0112008F7D197C007F147E001200CFAB
:1001300022020F0000021100000213000000C29012
:100140007F017E0012008FD29022C2917F017E003B
:1001500012008FD291227F0012010230A0FD80FB9D
:01016000227C
:00000001FF
