:1000000002002602019C000000000002019D000089
:100010000000000201A600000000000201A700008D
:100020000000000201A875AA0075BA00759D007550
:100030008170758922758CF0758AF075B80075A885
:10004000827588107456F5207556AAF9E78721271E
:10005000F522979410999520F52314342324FF3723
:1000600029352225233904F524E4F52508882605B9
:10007000560787271C8C28152317901234A3E520D8
:1000800089F0A4F52985F02A05F084F52B85F02C5C
:100090002456D4F52D5954FEF52E4957F52F4230EC
:1000A0007531AA523155314445F53253E0FFF533ED
:1000B000452047F5344334FF6C6521F535676434DA
:1000C000F536D2D47D966315E86215C2D4F423D3F5
:1000D00013C33323C4F537A7158738778887397555
:1000E0008170C020D03ACDC53BC7F53BD7F53CB3B6
:1000F0009220B220823172324003753DFFB045A09C
:10010000445003753EFFA2349235203503753FFFFE
:100110003035037540FF1036037541FF31237542BA
:100120008821242212012D75439802012E2270038A
:100130007544FF60037545FF7C00DC037546FFD501
:1001400004037547FF74FFB504037548FF85D04964
:0C015000B4FF03754AFF85D04BBCFF03D1
:10015C00754CFF85D04DB79803754EFF85D04F0079
:10016C008003754CFF7454F3F0E4E3F550E4E0F5D0
:10017C0051ECF55290FFFFA3858253858354E7F52C
:10018C0055740183F556E53093F55703F558800DFA
:0F019C0032C28C75A80A758ACC3232323280FE9C
:00000001FF
