:0A0B5300000102020303040405057B
:10041200E4F56FF56EF56DF56CC203C200C202C25F
:10042200011207B87E017F008E0A8F0B75120175CB
:10043200131275080175091C75100175113C7514AC
:100442000175155C90E680E030E70E85080C8509A1
:100452000D85100E85110F800C85100C85110D85F0
:10046200080E85090FEE54E0700302057D757000D9
:100472007571807E017F008E728F73C374EC9FFF53
:1004820074019ECF2402CF3400FEE48F6B8E6AF596
:1004920069F568F567F566F565F564AF6BAE6AAD4B
:1004A20069AC68AB67AA66A965A864C3120B42501F
:1004B20026E5712567F582E5703566F58374CDF022
:1004C200E5672401F567E43566F566E43565F565AB
:1004D200E43564F56480C4E4F567F566F565F564B2
:1004E200AF6BAE6AAD69AC68AB67AA66A965A86472
:1004F200C3120B425033E5732567F582E572356608
:10050200F583E0FFE5712567F582E5703566F583D1
:10051200EFF0E5672401F567E43566F566E43565D5
:10052200F565E43564F56480B785700A85710B74EE
:10053200002480FF740134FFFEC3E5139FF513E529
:10054200129EF512C3E50D9FF50DE50C9EF50CC349
:10055200E50F9FF50FE50E9EF50EC3E5099FF50920
:10056200E5089EF508C3E5119FF511E5109EF5100B
:10057200C3E5159FF515E5149EF514D2E843D8207E
:1005820090E668E04409F090E65CE0443DF0D2AFCA
:1005920090E680E020E105D204120A5A90E680E05B
:1005A20054F7F0538EF8C2033001051201EEC20176
:0A05B200300302C2031206FF80EEC0
:1001EE0090E6B9E0700302029F14700302031C2410
:1001FE00FE700302039F24FB700302029914700326
:10020E00020293146073146076240560030203FEE9
:10021E00120B69400302040A90E6BBE024FE602242
:10022E0014603324FD601114602224067048E50A20
:10023E0090E6B3F0E50B8037E51290E6B3F0E513E8
:10024E00802DE50C90E6B3F0E50D8023E50E90E6EB
:10025E00B3F0E50F801990E6BAE0FF120A89AA06FC
:10026E00A9077B01EA494B600DEE90E6B3F0EF90E3
:10027E00E6B4F002040A020403120B1F02040A126F
:10028E000B5D02040A1209AB02040A120B0D0204E2
:10029E000A120B6B400302040A90E6B8E0247F605A
:1002AE001514601924027063A200E43325E0FFA246
:1002BE0002E4334F8041E490E740F0803F90E6BC8B
:1002CE00E0547EFF7E00E0D394807C0040047D01EC
:1002DE0080027D00EC4EFEED4F2453F582740B3EF2
:1002EE00F583E493FF3395E0FEEF24A1FFEE34E6B1
:1002FE008F82F583E0540190E740F0E4A3F090E69E
:10030E008AF090E68B7402F002040A020403120BC8
:10031E006D400302040A90E6B8E024FE6016240243
:10032E00600302040A90E6BAE0B40105C2000204BA
:10033E000A02040390E6BAE0705590E6BCE0547EE3
:10034E00FF7E00E0D394807C0040047D0180027D1E
:10035E0000EC4EFEED4F2453F582740B3EF583E414
:10036E0093FF3395E0FEEF24A1FFEE34E68F82F586
:10037E0083E054FEF090E6BCE05480131313541F38
:10038E00FFE0540F2F90E683F0E04420F0806D8064
:10039E0064120B6F506690E6B8E024FE60192402DA
:1003AE00705A90E6BAE0B40104D200804F90E6BADB
:1003BE00E064026047803E90E6BCE0547EFF7E0023
:1003CE00E0D394807C0040047D0180027D00EC4EE1
:1003DE00FEED4F2453F582740B3EF583E493FF3309
:1003EE0095E0FEEF24A1FFEE34E68F82F5838008C0
:1003FE001205BC500790E6A0E04401F090E6A0E0A4
:03040E004480F037
:0104110022C8
:03003300020B6558
:040B650053D8EF3240
:100AF80001230042100300004110020041100000D1
:040B08004110010097
:1007B80090E6007410F075B60B53B1F475B203539C
:1007C80080FC90E6027408F000000090E60374E0F4
:1007D800F000000090E670E04480F090E60174E3D9
:1007E800F090E61274A0F000000090E61474E0F0B7
:1007F80000000090E6137402F000000090E615F087
:1008080000000000000090E6047480F0000000740E
:1008180002F00000007404F00000007406F000000C
:10082800007408F0000000E4F000000090E618F002
:100838000000007411F000000090E61A740DF0003A
:030848000000228B
:0106FF0022D8
:0200FE00D3220B
:0206FD00D32206
:020B6900D32295
:1009AB0090E680E030E71690E6247402F000000039
:1009BB0090E626F0000000E490E6258014E490E633
:1009CB0024F000000090E626F000000090E625746D
:1009DB0040F000000090E627F090E6BAE0F522D355
:0109EB0022E9
:100B0D0090E740E522F0E490E68AF090E68B04F061
:020B1D00D322E1
:080B5D0090E6BAE0F521D32275
:100B1F0090E740E521F0E490E68AF090E68B04F050
:020B2F00D322CF
:020B6B00D32293
:020B6D00D32291
:020B6F00D3228F
:040080008E7A8F7B6A
:10008400E4FCF57CF57DC281D280C2807D0FAF0592
:10009400E57BAE7AA807088005CEC313CE13D8F942
:1000A40030E004D2818002C281D280C280E58054D3
:1000B40008FF131313541F7E00AB05A80308800523
:1000C400C333CE33CED8F9427DEE427CED1D7001B0
:1000D4001CBCFFBABDFFB7C281D280C280AE7CAF68
:0100E4007D9E
:0100E50022F8
:1005BC0090E6B9E0245E700302066A24FC603014F5
:1005CC0070030206D5240260030206FB90E6BAE033
:1005DC00F9E4F5B1E930E00375B101E930E10375F7
:1005EC00B102E920E3030206FB75B1080206FB9099
:1005FC00E6BCE025E0F52390E68B7440F090E6A095
:10060C00E020E1F990E6BAE0F9E4F576F577C3E598
:10061C00779523E576940040030206FB7441257719
:10062C00F58274E73576F583E0FE74402577F58224
:10063C00E434E7F583E0FDEDFF1200808E748F75D6
:10064C00AD7774242DF8A607E574FF74252DF8A654
:10065C000774022577F577E43576F57680B0AF230D
:10066C007E00EF4E70030206FB90E6A0E020E1F95D
:10067C00C3EF9440EE940050068E748F758006750F
:10068C007400757540E4F576F577C3E5779575E5F7
:10069C00769574501EAD7774242DF8E6FC74402DBD
:1006AC00F582E434E7F583ECF00577E57770DB054C
:1006BC007680D7E490E68AF090E68BE575F0C3EF90
:1006CC009575FFEE9574FE809900000090E6047419
:1006DC0080F00000007402F00000007404F00000D0
:1006EC00007406F00000007408F0000000E4F0C391
:0106FC0022DB
:1000E600C0E0C083C082D2015391EF90E65D7401F7
:0800F600F0D082D083D0E0328B
:100ACC00C0E0C083C0825391EF90E65D7404F0D017
:060ADC0082D083D0E0325D
:100AE200C0E0C083C0825391EF90E65D7402F0D003
:060AF20082D083D0E03247
:1009EC00C0E0C083C08290E680E030E70E85080C42
:1009FC0085090D85100E85110F800C85100C851145
:100A0C000D85080E85090F5391EF90E65D7410F07B
:070A1C00D082D083D0E0324C
:100AB400C0E0C083C082D2035391EF90E65D740816
:080AC400F0D082D083D0E032B3
:100A2300C0E0C083C08290E680E030E70E85080C0A
:100A330085090D85100E85110F800C85100C85110D
:100A43000D85080E85090F5391EF90E65D7420F034
:070A5300D082D083D0E03215
:010B71003251
:010B72003250
:010B7300324F
:010B7400324E
:010B7500324D
:010B7600324C
:010B7700324B
:010B7800324A
:010B79003249
:010B7A003248
:010B7B003247
:010B7C003246
:010B7D003245
:010B7E003244
:010B7F003243
:010B80003242
:010B81003241
:010B82003240
:010B8300323F
:010B8400323E
:010B8500323D
:010B8600323C
:010B8700323B
:010B8800323A
:010B89003239
:010B8A003238
:010B8B003237
:010B8C003236
:010B8D003235
:010B8E003234
:010B8F003233
:010B90003232
:010B91003231
:010B92003230
:010B9300322F
:010B9400322E
:1008D700AD07ED30E00D908100E0901000F0A3E04F
:1008E70054FEF0ED30E10D909100E0901000F0A380
:1008F700E054FDF0ED30E20D90A100E0901000F023
:10090700A3E054FBF0ED30E30D90B100E090100050
:07091700F0A3E054F7F02209
:10091E00AD07ED30E00D908000E0901000F0A3E008
:10092E004401F0ED30E10D909000E0901000F0A346
:10093E00E04402F0ED30E20D90A000E0901000F0E7
:10094E00A3E04404F0ED30E30D90B000E090100011
:07095E00F0A3E04408F022C1
:100100001201000200000040B404031000000102CC
:1001100000010A0600020000004001000902200060
:10012000010100A0320904000002FF0000000705E1
:1001300002020002000705860200020009022000F8
:10014000010100A0320904000002FF0000000705C1
:10015000040240000007058802400000040309046F
:100160001003430079007000720065007300730093
:100170007C0345005A002D0055005300420020002A
:100180004600580032002000470050004900460059
:10019000200074006F0020004500780074002000EB
:1001A0004600490046004F002000450078006100ED
:1001B0006D0070006C006500200075007300690020
:1001C0006E0067002000530069006E0067006C003D
:1001D000650020005400720061006E007300610031
:0E01E0006300740069006F006E007300000081
:03004300020700B1
:03005300020700A1
:100700000200E600020AE200020ACC00020AB4007B
:100710000209EC00020A2300020B7100020B7200B6
:10072000020B7300020B7400020B7500020B7600C3
:10073000020B7700020B7800020B7900020B7A00A3
:10074000020B7B00020B7200020B7C00020B7D008F
:10075000020B7E00020B7F00020B8000020B810067
:10076000020B8200020B7200020B7200020B72007D
:10077000020B8300020B8400020B8500020B860033
:10078000020B8700020B8800020B8900020B8A0013
:10079000020B8B00020B8C00020B8D00020B8E00F3
:1007A000020B8F00020B9000020B9100020B9200D3
:0807B000020B9300020B940000
:100A5A0030040990E680E0440AF0800790E680E0DE
:100A6A004408F07FDC7E0512096590E65D74FFF0AC
:0F0A7A0090E65FF05391EF90E680E054F7F022A2
:020A8900A907BB
:100A8B00AE14AF158F828E83A3E064037017AD0194
:100A9B0019ED7001228F828E83E07C002FFDEC3EDE
:080AAB00FEAF0580DFE4FEFF51
:010AB3002220
:100965008E748F7590E600E054187012E5752401B9
:10097500FFE43574C313F574EF13F575801590E630
:1009850000E05418FFBF100BE57525E0F575E5741B
:1009950033F574E5751575AE74700215744E600502
:0609A500120B3180EE226E
:100B31007400F58690FDA57C05A3E582458370F9D7
:010B41002291
:0300000002084BA8
:0C084B00787FE4F6D8FD75817D020892EC
:100B4200EB9FF5F0EA9E42F0E99D42F0E89C45F009
:010B52002280
:10085700020412E493A3F8E493A34003F68001F2A1
:1008670008DFF48029E493A3F85407240CC8C333A2
:10087700C4540F4420C8834004F456800146F6DF71
:10088700E4800B0102040810204080900AF8E47EFF
:10089700019360BCA3FF543F30E509541FFEE49366
:1008A700A360010ECF54C025E060A840B8E493A32D
:1008B700FAE493A3F8E493A3C8C582C8CAC583CA58
:1008C700F0A3C8C582C8CAC583CADFE9DEE780BE10
:010B0C0000E8
:00000001FF
